:100000000C9446000C9465000C9465000C946500FB
:100010000C9465000C9465000C9465000C946500CC
:100020000C9465000C9465000C9465000C946500BC
:100030000C9465000C94B4000C9465000C9465005D
:100040000C9465000C9465000C9465000C9465009C
:100050000C9465000C9465000C9465000C9465008C
:100060000C9465000C9465000C9465000C9465007C
:100070000C9465000C9465000C9465000C9465006C
:100080000C9465000C9465000C94650011241FBE4F
:10009000CFEFD0E4DEBFCDBF11E0A0E0B1E0E8E7F4
:1000A000F5E000E00BBF02C007900D92A231B1074E
:1000B000D9F711E0A2E1B1E001C01D92AF31B10763
:1000C000E1F70E9412020C94BA020C940000CF9344
:1000D000C82F8A3019F48DE00E9467009091C0000B
:1000E00095FFFCCFC093C60080E090E0CF910895CB
:1000F00060930001709301018093020190930301CA
:100100006093140170931501809316019093170169
:1001100008958BE0809381008DE790E090938900B3
:100120008093880082E080936F0010928500109287
:1001300084008091000190910101A0910201B09191
:1001400003018093140190931501A0931601B093BD
:1001500017018FB780688FBF0895109281000895AE
:1001600081E08093180108951F920F920FB60F92AD
:1001700011240BB60F922F933F934F935F936F937E
:100180007F938F939F93AF93BF93EF93FF93809150
:10019000140190911501A0911601B09117010197DA
:1001A000A109B1098093140190931501A093160140
:1001B000B0931701892B8A2B8B2B91F40E94B000EE
:1001C0008091000190910101A0910201B091030181
:1001D0008093140190931501A0931601B093170119
:1001E000FF91EF91BF91AF919F918F917F916F910F
:1001F0005F914F913F912F910F900BBE0F900FBECB
:100200000F901F90189591E098B99BB96130B1F4A7
:100210000EC021E028B980FF03C029E028B902C040
:1002200021E028B923E028B986959F5F01C090E0BE
:10023000983078F385E088B918B808956230A9F449
:100240000EC021E02BB980FF03C029E02BB902C00A
:1002500021E02BB923E02BB986959F5F01C090E088
:10026000983078F385E08BB91BB808952091190177
:1002700030911A0121303105D9F020F022303105BA
:10028000E1F01FC090911301953521F0909112017A
:10029000953539F422E030E030931A0120931901AA
:1002A00010C021E030E030931A012093190109C0F9
:1002B00010921A011092190104C010921A011092A2
:1002C00019012091190130911A012130310521F0D5
:1002D0002230310559F00895813021F485E580936D
:1002E0001301089585E5809312010895813021F46A
:1002F0008AEA8093130108958AEA8093120108958F
:1003000020911B0130911C0121303105D9F020F0E2
:1003100022303105E1F01FC0909113019F3F21F081
:10032000909112019F3F39F422E030E030931C019C
:1003300020931B0110C021E030E030931C0120937A
:100340001B0109C010921C0110921B0104C01092E5
:100350001C0110921B0120911B0130911C012130C6
:10036000310521F02230310559F00895813021F412
:100370008FEF8093130108958FEF809312010895FA
:10038000813019F41092130108951092120108950A
:1003900020911D0130911E0121303105D9F020F04E
:1003A00022303105E1F01FC0909113019F3021F000
:1003B000909112019F3039F422E030E030931E0119
:1003C00020931D0110C021E030E030931E012093E6
:1003D0001D0109C010921E0110921D0104C010924F
:1003E0001E0110921D0120911D0130911E0121302E
:1003F000310521F02230310559F00895813021F482
:100400008FE08093130108958FE080931201089587
:10041000813021F480EF80931301089580EF809361
:100420001201089511B88FEF82B987B997E098B992
:100430008AB998B96AEF70E080E090E00E94780095
:100440000E94890010921A011092190110921C0149
:1004500010921B0110921E0110921D018FE08093DB
:1004600013018093120100E0D3E010E0C3E080B1FB
:1004700090E08095909583709927039721F411233C
:1004800091F010E015C0009906C08FEF8C0F8230FC
:1004900060F4CF5F0DC001990BC08EEF8C0F8230DE
:1004A00030F4C15005C011E003C0C1E001C0C3E099
:1004B00080B190E0809590958C7099270C9721F4ED
:1004C000002391F000E015C0029906C08FEF8D0F58
:1004D000823060F4DF5F0DC003990BC08EEF8D0F8B
:1004E000823030F4D15005C001E003C0D1E001C03A
:1004F000D3E0C13021F481E00E9436010BC0C2304C
:1005000021F481E00E94800105C0C33019F481E02C
:100510000E94C801112331F061E0809113010E9413
:10052000030104C061E080E00E940301D13021F4A6
:1005300082E00E9436010BC0D23021F482E00E949A
:10054000800105C0D33019F482E00E94C801002365
:1005500031F062E0809112010E94030104C062E068
:1005600080E00E940301809118018823E1F310923A
:0805700018017DCFF894FFCFC4
:100578000100000000000002000000006700000009
:02058800000071
:00000001FF
