:100000000C9446000C9465000C9465000C946500FB
:100010000C9465000C9465000C9465000C946500CC
:100020000C9465000C9465000C9465000C946500BC
:100030000C9465000C94B4000C9465000C9465005D
:100040000C9465000C9465000C9465000C9465009C
:100050000C9465000C9465000C9465000C9465008C
:100060000C9465000C9465000C9465000C9465007C
:100070000C9465000C9465000C9465000C9465006C
:100080000C9465000C9465000C94650011241FBE4F
:10009000CFEFD0E4DEBFCDBF11E0A0E0B1E0E4E4FB
:1000A000F4E000E00BBF02C007900D92A231B1074F
:1000B000D9F711E0A2E1B1E001C01D92AE31B10764
:1000C000E1F70E94C1010C9420020C940000CF9330
:1000D000C82F8A3019F48DE00E9467009091C0000B
:1000E00095FFFCCFC093C60080E090E0CF910895CB
:1000F00060930001709301018093020190930301CA
:10010000609313017093140180931501909316016D
:1001100008958BE0809381008DE790E090938900B3
:100120008093880082E080936F0010928500109287
:1001300084008091000190910101A0910201B09191
:1001400003018093130190931401A0931501B093C0
:1001500016018FB780688FBF0895109281000895AF
:1001600081E08093170108951F920F920FB60F92AE
:1001700011240BB60F922F933F934F935F936F937E
:100180007F938F939F93AF93BF93EF93FF93809150
:10019000130190911401A0911501B09116010197DE
:1001A000A109B1098093130190931401A093150143
:1001B000B0931601892B8A2B8B2B91F40E94B000EF
:1001C0008091000190910101A0910201B091030181
:1001D0008093130190931401A0931501B09316011D
:1001E000FF91EF91BF91AF919F918F917F916F910F
:1001F0005F914F913F912F910F900BBE0F900FBECB
:100200000F901F90189591E098B990E00DC021E0F3
:1002100028B980FF03C029E028B902C021E028B92D
:1002200023E028B986959F5F983088F385E088B9E8
:1002300018B80895809118019091190181309105A5
:10024000B1F018F00297C1F01BC080911201853502
:1002500039F482E090E0909319018093180110C066
:1002600081E090E0909319018093180109C01092E9
:1002700019011092180104C010921901109218016E
:1002800080911801909119018130910519F0029720
:1002900029F0089585E58093120108958AEA8093F4
:1002A0001201089580911A0190911B0181309105EE
:1002B000B1F018F00297C1F01BC0809112018F3F7E
:1002C00039F482E090E090931B0180931A0110C0F2
:1002D00081E090E090931B0180931A0109C0109275
:1002E0001B0110921A0104C010921B0110921A01F6
:1002F00080911A0190911B018130910519F00297AC
:1003000029F008958FEF8093120108951092120141
:10031000089580911C0190911D0181309105B1F0EB
:1003200018F00297C1F01BC0809112018F3039F490
:1003300082E090E090931D0180931C0110C081E049
:1003400090E090931D0180931C0109C010921D0143
:1003500010921C0104C010921D0110921C0180918A
:100360001C0190911D018130910519F0029729F02F
:1003700008958FE080931201089580EF8093120119
:10038000089511B88FEF82B987B987E088B964E61C
:1003900070E080E090E00E9478000E948900109256
:1003A00019011092180110921B0110921A0110925B
:1003B0001D0110921C018FE080931201D0E0C3E078
:1003C00080B190E08095909583709927039721F4F0
:1003D000DD2391F0D0E015C0009906C08FEF8C0F9F
:1003E000823060F4CF5F0DC001990BC08EEF8C0F8F
:1003F000823030F4C15005C0D1E003C0C1E001C07B
:10040000C3E0C13019F40E941A0109C0C23019F4C6
:100410000E94520104C0C33011F40E948901DD23FF
:1004200029F0809112010E94030103C080E00E9424
:100430000301809117018823E1F310921701C0CFC7
:04044000F894FFCF5E
:10044400010000000000000200000000670000003E
:020454000000A6
:00000001FF
